:100000000C942A000C94180A0C94450A0C94720A59
:100010000C9447000C9447000C9447000C94470044
:100020000C9447000C9447000C9447000C94220950
:100030000C9447000C9447000C9447000C94470024
:100040000C9447000C9447000C9447000C94470014
:100050000C94470011241FBECFE5D8E0DEBFCDBF12
:1000600012E0A0E6B0E0E6E0FEE402C005900D92EA
:10007000AA31B107D9F712E0AAE1B2E001C01D929E
:10008000A034B107E1F70E9439260C9401270C94A3
:100090000000EF92FF920F931F937B018C0120E0F1
:1000A00030E040E05FE40E94F50388238CF0C80153
:1000B000B70120E030E040E05FE40E94C1010E940F
:1000C00055049B01AC01205030404040504806C0D0
:1000D000C801B7010E9455049B01AC01B901CA01D6
:1000E0001F910F91FF90EF900895A0E0B0E0EBE733
:1000F000F0E00C94CA26DC012B01FA019C919230AD
:1001000008F439C1EB018881823008F433C194309E
:1001100069F4843009F02FC111969C91119789815F
:10012000981709F428C1AFEFB0E025C1843009F475
:1001300021C18230A9F4923009F01DC19A01AD01AC
:1001400088E0EA010990AE01E90109929E0181501F
:10015000C1F7E201898111969C918923818308C1AD
:10016000923009F407C112962D903C901397EB0141
:100170008A819B811496AD90BD90CD90DC901797AD
:10018000EC80FD800E811F819101281B390BB90184
:1001900037FF04C066277727621B730B6032710537
:1001A0000CF061C0121613066CF537014801062EDB
:1001B00004C096948794779467940A94D2F721E0C8
:1001C00030E040E050E004C0220F331F441F551FB1
:1001D0006A95D2F721503040404050402E213F21B7
:1001E00040235123211531054105510521F021E01E
:1001F00030E040E050E079018A01E628F72808293C
:1002000019293CC0232BD1F1260E371E350146019A
:10021000062E04C096948794779467940A94D2F734
:1002200021E030E040E050E004C0220F331F441FC3
:10023000551F6A95D2F721503040404050402A2146
:100240003B214C215D21211531054105510521F04E
:1002500021E030E040E050E059016A01A628B728CB
:10026000C828D9280BC0821593052CF01C01AA249C
:10027000BB24650103C0EE24FF24870111969C91E5
:10028000D20111968C91981709F445C0992339F041
:10029000A80197012A193B094C095D0906C0A6016E
:1002A00095012E193F09400B510B57FD08C01182D3
:1002B0003382228224833583468357831DC081E0A5
:1002C00081833382228288279927DC01821B930B4A
:1002D000A40BB50B84839583A683B7830DC0220F2F
:1002E000331F441F551F24833583468357838281E0
:1002F000938101979383828324813581468157813D
:10030000DA01C9010197A109B1098F5F9F4FAF4F72
:10031000BF4328F30BC0918333822282EA0CFB1C7B
:100320000C1D1D1DE482F5820683178383E0808304
:10033000248135814681578157FF1AC0C901AA27F8
:1003400097FDA095BA2F81709070A070B0705695EF
:10035000479537952795822B932BA42BB52B848318
:100360009583A683B7838281938101969383828349
:10037000DF0101C0D201CD01CDB7DEB7E2E10C94BF
:10038000E626A0E2B0E0E7ECF1E00C94D626698323
:100390007A838B839C832D833E834F835887E9E048
:1003A000EE2EF12CEC0EFD1ECE010196B7010E943F
:1003B00046068E010F5E1F4FCE010596B8010E94C2
:1003C00046068A8991E089278A8BC701B801AE0168
:1003D000475E5F4F0E9475000E947105A096E6E09F
:1003E0000C94F226A0E2B0E0E8EFF1E00C94D626FF
:1003F00069837A838B839C832D833E834F835887C5
:10040000F9E0EF2EF12CEC0EFD1ECE010196B701A6
:100410000E9446068E010F5E1F4FCE010596B80161
:100420000E944606C701B801AE01475E5F4F0E94B9
:1004300075000E947105A096E6E00C94F226A0E2F9
:10044000B0E0E5E2F2E00C94CA2669837A838B83FC
:100450009C832D833E834F835887CE010196BE0136
:10046000675F7F4F0E944606CE010596BE016F5E14
:100470007F4F0E9446069985923088F089898230A4
:10048000C8F0943019F4823051F404C0843029F457
:10049000923081F48FEF90E0C6C0923049F420E0B2
:1004A0009A858A89981321E02A87CE010996BBC0D4
:1004B000823049F420E09A858A89981321E02A8BBA
:1004C000CE014196B0C02D843E844F8458886D88FB
:1004D0007E888F88988CEE24FF248701AA24BB2471
:1004E000650140E050E060E070E0E0E0F0E0C10174
:1004F00081709070892BE9F0E60CF71C081D191D1E
:100500009A01AB012A0D3B1D4C1D5D1D80E090E062
:10051000A0E0B0E0E614F7040805190520F481E036
:1005200090E0A0E0B0E0BA01A901480F591F6A1F8E
:100530007B1FAA0CBB1CCC1CDD1C97FE08C081E0F5
:1005400090E0A0E0B0E0A82AB92ACA2ADB2A3196B6
:10055000E032F10549F0660C771C881C991C569412
:10056000479437942794C3CFFA85EA892B893C892D
:100570008B859C85280F391F2E5F3F4F17C0CA01FE
:1005800081709070892B61F016950795F794E79428
:1005900080E090E0A0E0B0E8E82AF92A0A2B1B2BC3
:1005A00076956795579547952F5F3F4F77FDE7CF36
:1005B0000CC0440F551F661F771F17FD4160EE0CDE
:1005C000FF1C001F111F21503040403090E05907A0
:1005D00090E0690790E4790760F32B8F3C8FDB0193
:1005E000CA018F779070A070B07080349105A1051A
:1005F000B10561F447FD0AC0E114F10401051105DC
:1006000029F0405C5F4F6F4F7F4F40781A8EFE1786
:1006100011F081E08A8F4D8F5E8F6F8F78A383E01A
:10062000898FCE0149960E947105A096E2E10C9453
:10063000E626A8E1B0E0EFE1F3E00C94D22669836E
:100640007A838B839C832D833E834F835887B9E0C5
:10065000EB2EF12CEC0EFD1ECE010196B7010E948F
:1006600046068E010F5E1F4FCE010596B8010E940F
:1006700046062985223008F47EC03989323010F4CC
:10068000B8017CC08A859A8989278A87243011F02D
:10069000223031F4231709F06EC06FEF70E06EC0A6
:1006A000343039F41D861E861F86188A1C861B86E8
:1006B00004C0323021F484E08987B7015FC02B8504
:1006C0003C858B899C89281B390B3C872B87ED84C3
:1006D000FE840F851889AD88BE88CF88D88CEA142F
:1006E000FB040C051D0540F4EE0CFF1C001F111F40
:1006F000215030403C872B8720E030E040E050E044
:1007000080E090E0A0E0B0E460E070E0EA14FB0478
:100710000C051D0540F0282B392B4A2B5B2BEA18C2
:10072000FB080C091D09B695A79597958795EE0CC2
:10073000FF1C001F111F6F5F7F4F6F31710531F775
:10074000DA01C9018F779070A070B0708034910584
:10075000A105B10561F427FD0AC0E114F10401050A
:10076000110529F0205C3F4F4F4F5F4F20782D87B8
:100770003E874F87588BBE01675F7F4FCB010E943A
:1007800071056896EAE00C94EE26A8E1B0E0EBEC87
:10079000F3E00C94D62669837A838B839C832D8324
:1007A0003E834F83588789E0E82EF12CEC0EFD1E26
:1007B000CE010196B7010E9446068E010F5E1F4FC3
:1007C000CE010596B8010E9446068985823040F028
:1007D0008989823028F0C701B8010E94BE0601C095
:1007E0008FEF6896E6E00C94F226A8E1B0E0EBEF1C
:1007F000F3E00C94D62669837A838B839C832D83C4
:100800003E834F83588789E0E82EF12CEC0EFD1EC5
:10081000CE010196B7010E9446068E010F5E1F4F62
:10082000CE010596B8010E9446068985823040F0C7
:100830008989823028F0C701B8010E94BE0601C034
:100840008FEF6896E6E00C94F226A8E1B0E0EBE2C8
:10085000F4E00C94D62669837A838B839C832D8362
:100860003E834F83588789E0E82EF12CEC0EFD1E65
:10087000CE010196B7010E9446068E010F5E1F4F02
:10088000CE010596B8010E9446068985823040F067
:100890008989823028F0C701B8010E94BE0601C0D4
:1008A00081E06896E6E00C94F226ACE0B0E0EBE57F
:1008B000F4E00C94DA2669837A838B839C83CE01DF
:1008C0000196BE016B5F7F4F0E9446068D8182308C
:1008D00061F1823050F1843021F48E81882351F10E
:1008E0002EC02F81388537FD20C06E812F31310514
:1008F0001CF06623F9F023C08EE190E0821B930B7D
:1009000029853A854B855C8504C056954795379572
:1009100027958A95D2F76623B1F05095409530958A
:1009200021953F4F4F4F5F4F0EC020E030E040E039
:1009300050E009C02FEF3FEF4FEF5FE704C020E02A
:1009400030E040E050E8B901CA012C96E2E00C9496
:10095000F626A8E0B0E0EFEAF4E00C94D2267B01A2
:100960008C01611571058105910519F482E0898377
:1009700060C083E089838EE1C82ED12CDC82CB82DB
:10098000ED82FE820F831887C801B7010E942205FD
:10099000FC013197F7FF3BC0222733272E1B3F0B6B
:1009A00057016801022E04C0D694C794B794A79447
:1009B0000A94D2F740E050E060E070E081E090E01F
:1009C000A0E0B0E004C0880F991FAA1FBB1F2A95A2
:1009D000D2F70197A109B1098E219F21A023B1234C
:1009E0000097A105B10521F041E050E060E070E022
:1009F0004A295B296C297D294D835E836F83788723
:100A00008EE190E08E1B9F0B9C838B8312C03097EE
:100A100081F00E2E04C0EE0CFF1C001F111F0A9463
:100A2000D2F7ED82FE820F831887CE1ADF0ADC82AE
:100A3000CB821A82CE0101960E9471052896EAE0C7
:100A40000C94EE26EF92FF920F931F937B018C0183
:100A500080E0E81680E0F80681E0080780E01807EB
:100A600088F48FEFE816F1040105110531F028F044
:100A700088E090E0A0E0B0E017C080E090E0A0E067
:100A8000B0E012C080E0E81680E0F80680E00807D9
:100A900081E0180728F088E190E0A0E0B0E004C011
:100AA00080E190E0A0E0B0E020E230E040E050E003
:100AB000281B390B4A0B5B0B04C016950795F7945E
:100AC000E7948A95D2F7F701E95FFE4F8081281BF2
:100AD000310941095109C9011F910F91FF90EF9010
:100AE0000895DF92EF92FF920F931F93FC01E48031
:100AF000F58006811781D1808081823048F480E0C2
:100B000090E0A0E1B0E0E82AF92A0A2B1B2BA5C04F
:100B1000843009F49FC0823021F4EE24FF24870141
:100B200005C0E114F1040105110519F4E0E0F0E05D
:100B300096C0628173819FEF623879070CF05BC0C9
:100B400022E83FEF261B370B2A3131052CF020E03D
:100B500030E040E050E02AC0B801A701022E04C0F6
:100B600076956795579547950A94D2F781E090E07E
:100B7000A0E0B0E004C0880F991FAA1FBB1F2A95F0
:100B8000D2F70197A109B1098E219F21A023B1239A
:100B90000097A105B10521F081E090E0A0E0B0E070
:100BA0009A01AB01282B392B4A2B5B2BDA01C901A7
:100BB0008F779070A070B07080349105A105B10559
:100BC00039F427FF09C0205C3F4F4F4F5F4F04C0EF
:100BD000215C3F4F4F4F5F4FE0E0F0E02030A0E05E
:100BE0003A07A0E04A07A0E45A0710F0E1E0F0E07D
:100BF00079018A0127C06038710564F5FB01E1586D
:100C0000FF4FD801C7018F779070A070B07080340B
:100C10009105A105B10539F4E7FE0DC080E490E02F
:100C2000A0E0B0E004C08FE390E0A0E0B0E0E80E08
:100C3000F91E0A1F1B1F17FF05C016950795F7948D
:100C4000E794319687E016950795F794E7948A958F
:100C5000D1F705C0EE24FF248701EFEFF0E06E2FFF
:100C6000679566276795902F9F77D794DD24D79453
:100C70008E2F8695492F462B582F5D29B701CA0123
:100C80001F910F91FF90EF90DF900895FC01DB0121
:100C9000408151812281622F6F7770E0221F2227CD
:100CA000221F9381892F880F822B282F30E0991FD4
:100CB0009927991F11969C93119721153105A9F534
:100CC000411551056105710511F482E037C082E8D4
:100CD0009FEF13969C938E9312979A01AB0167E056
:100CE000220F331F441F551F6A95D1F783E08C9361
:100CF0000DC0220F331F441F551F12968D919C91DA
:100D00001397019713969C938E931297203080E04F
:100D1000380780E0480780E4580758F314962D936D
:100D20003D934D935C93179708952F3F310579F4C8
:100D3000411551056105710519F484E08C930895FE
:100D400064FF03C081E08C9312C01C9210C02F5727
:100D5000304013963C932E93129783E08C9387E058
:100D6000440F551F661F771F8A95D1F7706414963C
:100D70004D935D936D937C93179708951F93DC01BA
:100D8000FB019C91923008F447C08081823008F4C6
:100D900043C0943051F411961C91843099F58181AF
:100DA000682F70E0611B71093FC0843021F09230E0
:100DB00031F48230B9F18181882389F12DC01196F7
:100DC0001C9111978230F1F081811817D9F4129695
:100DD0002D913C911397828193818217930794F010
:100DE00028173907BCF014968D919D910D90BC91F8
:100DF000A02D2481358146815781281739074A075C
:100E00005B0718F4112341F00AC082179307A40767
:100E1000B50740F4112319F061E070E005C06FEFF1
:100E20007FEF02C060E070E0CB011F910895DF9377
:100E3000CF93CDB7DEB7AFE5B0E0EFE5F0E080816E
:100E400080688C93A3E5B0E0E3E5F0E080818F7BE0
:100E50008C93A3E5B0E0E3E5F0E08081877F8C939D
:100E6000A9E5B0E0E9E5F0E0808181608C93CF9165
:100E7000DF910895DF93CF93CDB7DEB72C970FB6F0
:100E8000F894DEBF0FBECDBF69877A878B879C87BA
:100E900080E490E0A0E0B0E08D839E83AF83B887CC
:100EA00089859A85AB85BC8528EE33E040E050E02B
:100EB000BC01CD010E944E26DC01CB012D813E817B
:100EC0004F815885BC01CD010E948D26DA01C901F0
:100ED00089839A83AB83BC8389819A81AB81BC81EE
:100EE000892F9A2FAB2FBB2780931A0290931B0256
:100EF000A0931C02B0931D028981809322028091ED
:100F000022028823C9F0E2E5F0E080912202819577
:100F1000808380911A0290911B02A0911C02B091D3
:100F20001D020196A11DB11D80931A0290931B0210
:100F3000A0931C02B0931D022C960FB6F894DEBF4E
:100F40000FBECDBFCF91DF910895DF93CF9300D037
:100F50000F92CDB7DEB789838981282F30E03B839C
:100F60002A838A819B81009731F02A813B8121303D
:100F70003105B9F02BC0A3E5B0E0E3E5F0E08081F6
:100F800081608C93A3E5B0E0E3E5F0E080818D7FA4
:100F90008C93A3E5B0E0E3E5F0E0808184608C937E
:100FA00015C0AEE4B0E0EEE4F0E0808181608C93A7
:100FB000AEE4B0E0EEE4F0E080818D7F8C93AEE4AF
:100FC000B0E0EEE4F0E0808184608C930F900F90AD
:100FD0000F90CF91DF910895DF93CF9300D00F92C0
:100FE000CDB7DEB789838981282F30E03B832A8300
:100FF0008A819B81009731F02A813B812130310524
:10100000B9F02BC0A3E5B0E0E3E5F0E080818E7F8E
:101010008C93A3E5B0E0E3E5F0E080818D7F8C93D5
:10102000A3E5B0E0E3E5F0E080818B7F8C9315C011
:10103000AEE4B0E0EEE4F0E080818E7F8C93AEE42D
:10104000B0E0EEE4F0E080818D7F8C93AEE4B0E020
:10105000EEE4F0E080818B7F8C930F900F900F90E7
:10106000CF91DF910895DF93CF9300D00F92CDB74A
:10107000DEB789838981282F30E03B832A838A81E8
:101080009B81009731F02A813B8121303105A1F00D
:1010900047C087E161E00E949F0AA3E5B0E0E3E575
:1010A000F0E080818F7E8C93A3E5B0E0E3E5F0E093
:1010B000808180628C9334C08DE261E00E949F0A3F
:1010C000AFE4B0E0EFE4F0E080818E7F8C93AFE49A
:1010D000B0E0EFE4F0E0808182608C93AEE4B0E0B9
:1010E000EEE4F0E0808188608C93AEE4B0E0EEE462
:1010F000F0E0808180618C93AFE4B0E0EFE4F0E059
:1011000080818F7B8C93AFE4B0E0EFE4F0E08081EE
:1011100080688C93E6E4F0E084E091E09183808342
:101120000F900F900F90CF91DF9108950F931F9321
:10113000DF93CF93CDB7DEB727970FB6F894DEBF16
:101140000FBECDBF89834A835B836C837D83898196
:10115000282F30E03F832E838E819F810097D9F125
:10116000EE81FF81E130F105B1F50AE410E0E6E43B
:10117000F0E080819181CC01A0E0B0E0BC01CD0124
:101180000E94A904DC01CB01BC01CD012A813B8175
:101190004C815D810E941F02DC01CB01BC01CD01AD
:1011A00020E030E048EC52E40E941903DC01CB015E
:1011B000BC01CD0120E030E040E85FE30E94C101C6
:1011C000DC01CB01BC01CD010E944900DC01CB0157
:1011D000F8019183808327960FB6F894DEBF0FBE87
:1011E000CDBFCF91DF911F910F910895DF93CF93E2
:1011F0000F92CDB7DEB7898389810E94A5070F9032
:10120000CF91DF910895DF93CF930F92CDB7DEB7E3
:10121000898389810E94EC070F90CF91DF91089517
:10122000DF93CF9300D0CDB7DEB79A8389838981CE
:101230009A8190933902809338020F900F90CF914A
:10124000DF9108951F920F920FB60F9211242F93E2
:101250003F934F935F936F937F938F939F93AF933E
:10126000BF93EF93FF93DF93CF93CDB7DEB780911A
:10127000230290912402A0912502B09126020196AA
:10128000A11DB11D8093230290932402A0932502F7
:10129000B09326022091230230912402409125022E
:1012A0005091260280911A0290911B02A0911C027B
:1012B000B0911D02281739074A075B0799F410926D
:1012C0002302109224021092250210922602E0912D
:1012D0003802F09139020995E2E5F0E080912202AE
:1012E00081958083CF91DF91FF91EF91BF91AF9175
:1012F0009F918F917F916F915F914F913F912F912E
:101300000F900FBE0F901F901895DF93CF9300D0D2
:101310000F92CDB7DEB789838981282F30E03B83D8
:101320002A838A819B8181309105F9F02A813B8152
:101330002230310581F18A819B810097D1F5A5E5A5
:10134000B0E0E5E5F0E080818E7F8C93A5E5B0E02C
:10135000E5E5F0E0808182608C93ABE5B0E0EBE501
:10136000F0E0808180648C9324C0A5E5B0E0E5E5E1
:10137000F0E080818B7F8C93A5E5B0E0E5E5F0E0BF
:10138000808188608C93ABE5B0E0EBE5F0E0808194
:1013900080688C930EC0A4E5B0E0E4E5F0E08081C5
:1013A00080648C93ABE5B0E0EBE5F0E08081806297
:1013B0008C930F900F900F90CF91DF910895DF9352
:1013C000CF9300D000D00F92CDB7DEB789837B8357
:1013D0006A838981282F30E03D832C838C819D8115
:1013E0008130910581F02C813D812230310591F0D1
:1013F0008C819D810097A1F48A819B8190933F020B
:1014000080933E020DC08A819B8190933B02809322
:101410003A0206C08A819B8190933D0280933C02F0
:101420000F900F900F900F900F90CF91DF91089534
:101430001F920F920FB60F9211242F933F934F9349
:101440005F936F937F938F939F93AF93BF93EF932C
:10145000FF93DF93CF93CDB7DEB7E0913E02F091DB
:101460003F020995CF91DF91FF91EF91BF91AF912D
:101470009F918F917F916F915F914F913F912F91AC
:101480000F900FBE0F901F9018951F920F920FB6DE
:101490000F9211242F933F934F935F936F937F93FA
:1014A0008F939F93AF93BF93EF93FF93DF93CF936C
:1014B000CDB7DEB7E0913A02F0913B020995CF91AA
:1014C000DF91FF91EF91BF91AF919F918F917F91AC
:1014D0006F915F914F913F912F910F900FBE0F90A1
:1014E0001F9018951F920F920FB60F9211242F93F1
:1014F0003F934F935F936F937F938F939F93AF939C
:10150000BF93EF93FF93DF93CF93CDB7DEB7E09117
:101510003C02F0913D020995CF91DF91FF91EF914F
:10152000BF91AF919F918F917F916F915F914F91FB
:101530003F912F910F900FBE0F901F901895DF9342
:10154000CF93CDB7DEB72A970FB6F894DEBF0FBEA4
:10155000CDBF8B836C838B819AE0692F0E946D26AF
:10156000892F8A838B819AE0692F0E946D26898357
:101570008C81282F30E03A87298789859A850097C2
:1015800039F029853A852130310509F476C0E4C067
:101590008981282F30E038872F838F81988582308A
:1015A000910561F12F8138852330310534F48F8125
:1015B00098858130910569F0CFC02F81388523301F
:1015C000310589F18F8198858430910509F440C0F7
:1015D000C3C0AAE3B0E0EAE3F0E08081482F8A814B
:1015E000282F30E081E090E0022E02C0880F991F82
:1015F0000A94E2F7809584238C93AEC0A7E3B0E011
:10160000E7E3F0E08081482F8A81282F30E081E0F5
:1016100090E0022E02C0880F991F0A94E2F780958D
:1016200084238C9399C0A4E3B0E0E4E3F0E08081EC
:10163000482F8A81282F30E081E090E0022E02C0FE
:10164000880F991F0A94E2F7809584238C9384C0B5
:10165000A1E3B0E0E1E3F0E08081482F8A81282F08
:1016600030E081E090E0022E02C0880F991F0A94BA
:10167000E2F7809584238C936FC08981282F30E016
:101680003E832D838D819E818230910551F12D8184
:101690003E812330310534F48D819E818130910566
:1016A00061F05AC02D813E812330310571F18D8169
:1016B0009E8184309105E9F14FC0AAE3B0E0EAE3EE
:1016C000F0E08081482F8A81282F30E081E090E08F
:1016D000022E02C0880F991F0A94E2F7842B8C9384
:1016E0003BC0A7E3B0E0E7E3F0E08081482F8A81C8
:1016F000282F30E081E090E0022E02C0880F991F71
:101700000A94E2F7842B8C9327C0A4E3B0E0E4E3CF
:10171000F0E08081482F8A81282F30E081E090E03E
:10172000022E02C0880F991F0A94E2F7842B8C9333
:1017300013C0A1E3B0E0E1E3F0E08081482F8A81AB
:10174000282F30E081E090E0022E02C0880F991F20
:101750000A94E2F7842B8C932A960FB6F894DEBF96
:101760000FBECDBFCF91DF910895DF93CF93CDB75B
:10177000DEB72A970FB6F894DEBF0FBECDBF8B83BE
:101780006C838B819AE0692F0E946D26892F8A8352
:101790008B819AE0692F0E946D2689838C81282F86
:1017A00030E03A87298789859A85009739F029851D
:1017B0003A852130310509F476C0E4C08981282FAB
:1017C00030E038872F838F8198858230910561F1D1
:1017D0002F8138852330310534F48F81988581300D
:1017E000910569F0CFC02F8138852330310589F10B
:1017F0008F8198858430910509F440C0C3C0ABE364
:10180000B0E0EBE3F0E08081482F8A81282F30E0C0
:1018100081E090E0022E02C0880F991F0A94E2F73F
:10182000809584238C93AEC0A8E3B0E0E8E3F0E0B9
:101830008081482F8A81282F30E081E090E0022EBD
:1018400002C0880F991F0A94E2F7809584238C9335
:1018500099C0A5E3B0E0E5E3F0E08081482F8A81FC
:10186000282F30E081E090E0022E02C0880F991FFF
:101870000A94E2F7809584238C9384C0A2E3B0E0BD
:10188000E2E3F0E08081482F8A81282F30E081E078
:1018900090E0022E02C0880F991F0A94E2F780950B
:1018A00084238C936FC08981282F30E03E832D8361
:1018B0008D819E818230910551F12D813E812330B1
:1018C000310534F48D819E818130910561F05AC0DB
:1018D0002D813E812330310571F18D819E818430CF
:1018E0009105E9F14FC0ABE3B0E0EBE3F0E08081BC
:1018F000482F8A81282F30E081E090E0022E02C03C
:10190000880F991F0A94E2F7842B8C933BC0A8E3BD
:10191000B0E0E8E3F0E08081482F8A81282F30E0B2
:1019200081E090E0022E02C0880F991F0A94E2F72E
:10193000842B8C9327C0A5E3B0E0E5E3F0E0808141
:10194000482F8A81282F30E081E090E0022E02C0EB
:10195000880F991F0A94E2F7842B8C9313C0A2E39B
:10196000B0E0E2E3F0E08081482F8A81282F30E068
:1019700081E090E0022E02C0880F991F0A94E2F7DE
:10198000842B8C932A960FB6F894DEBF0FBECDBF82
:10199000CF91DF910895DF93CF9300D000D000D096
:1019A000CDB7DEB78C8381E08B838C819AE0692F81
:1019B0000E946D26892F8A838C819AE0692F0E946C
:1019C0006D2689838981282F30E03E832D834D81C8
:1019D0005E814230510541F18D819E8183309105B8
:1019E00034F42D813E812130310561F052C04D81AA
:1019F0005E814330510551F18D819E818430910586
:101A0000B9F147C0E9E3F0E08081282F30E08A8116
:101A1000882F90E0A90102C0559547958A95E2F775
:101A2000CA0181708B8335C0E6E3F0E08081282F06
:101A300030E08A81882F90E0A90102C05595479532
:101A40008A95E2F7CA0181708B8323C0E3E3F0E05B
:101A50008081282F30E08A81882F90E0A90102C080
:101A6000559547958A95E2F7CA0181708B8311C01D
:101A7000E0E3F0E08081282F30E08A81882F90E039
:101A8000A90102C0559547958A95E2F7CA01817070
:101A90008B838B8126960FB6F894DEBF0FBECDBF29
:101AA000CF91DF910895DF93CF9300D000D00F92B4
:101AB000CDB7DEB78B838B819AE0692F0E946D26AC
:101AC000892F8A838B819AE0692F0E946D268983F2
:101AD0008981282F30E03D832C838C819D81823049
:101AE000910551F12C813D812330310534F48C81F5
:101AF0009D818130910561F05AC02C813D81233058
:101B0000310571F18C819D8184309105E9F14FC0DF
:101B1000A9E3B0E0E9E3F0E08081482F8A81282F33
:101B200030E081E090E0022E02C0880F991F0A94F5
:101B3000E2F784278C933BC0A6E3B0E0E6E3F0E055
:101B40008081482F8A81282F30E081E090E0022EAA
:101B500002C0880F991F0A94E2F784278C9327C04C
:101B6000A3E3B0E0E3E3F0E08081482F8A81282FEF
:101B700030E081E090E0022E02C0880F991F0A94A5
:101B8000E2F784278C9313C0A0E3B0E0E0E3F0E039
:101B90008081482F8A81282F30E081E090E0022E5A
:101BA00002C0880F991F0A94E2F784278C930F9044
:101BB0000F900F900F900F90CF91DF910895DF93CA
:101BC000CF93CDB7DEB7A7E2B0E0E7E2F0E08081E7
:101BD00080648C93A7E2B0E0E7E2F0E080818F7749
:101BE0008C93A7E2B0E0E7E2F0E080818F7D8C93F8
:101BF000A6E2B0E0E6E2F0E080818E7F8C93A6E280
:101C0000B0E0E6E2F0E0808182608C93A6E2B0E092
:101C1000E6E2F0E0808184608C93A6E2B0E0E6E248
:101C2000F0E0808180628C93A6E2B0E0E6E2F0E032
:101C3000808180688C93CF91DF910895DF93CF935B
:101C400000D000D00F92CDB7DEB78D8319821A82F3
:101C50001B821C82A6E2B0E0E6E2F0E080818064B4
:101C60008C93A7E2B0E0E7E2F0E08081807E8C9385
:101C7000A7E2B0E0E7E2F0E090818D81892B8C93C0
:101C800016C089819A81AB81BC810196A11DB11DCD
:101C900089839A83AB83BC83E6E2F0E080818295FE
:101CA0008F70882F90E081709070882361F4898113
:101CB0009A81AB81BC81803824E892072EE1A2078B
:101CC00020E0B207F0F2E4E2F0E0808191810F9031
:101CD0000F900F900F900F90CF91DF910895DF93A9
:101CE000CF9300D00F92CDB7DEB789838981282F9B
:101CF00030E03B832A838A819B8181309105F1F01A
:101D00002A813B81223031052CF48A819B81009706
:101D100061F02EC02A813B8122303105C1F08A81D9
:101D20009B8183309105E1F023C08FE260E00E9447
:101D30009F0A8FE261E00E94B50B1AC08EE260E05C
:101D40000E949F0A8EE261E00E94B50B11C08DE2F5
:101D500060E00E949F0A8DE261E00E94B50B08C01E
:101D60008BE260E00E949F0A8BE261E00E94B50B6B
:101D70000F900F900F90CF91DF910895DF93CF9345
:101D8000CDB7DEB7EC970FB6F894DEBF0FBECDBF70
:101D90008AAF81E089AF8AAD282F30E03CAF2BAF0E
:101DA0008BAD9CAD8130910509F497C02BAD3CAD56
:101DB000223031052CF48BAD9CAD009771F00BC235
:101DC0002BAD3CAD2230310509F407C18BAD9CAD84
:101DD0008330910509F481C1FEC18FE20E94CB0CD2
:101DE000882309F0F8C180E090E0A0EAB1E48DAB6F
:101DF0009EABAFABB8AF6DA97EA98FA998AD20E01F
:101E000030E04AE755E40E941F02DC01CB0189ABB8
:101E10009AABABABBCAB69A97AA98BA99CA920E012
:101E200030E040E85FE30E94250488232CF481E041
:101E300090E098AB8FA73FC069A97AA98BA99CA90C
:101E400020E03FEF4FE757E40E94C50318164CF51A
:101E50006DA97EA98FA998AD20E030E040E251E461
:101E60000E941F02DC01CB01BC01CD010E94490090
:101E7000DC01CB0198AB8FA70FC080E991E09EA752
:101E80008DA78DA59EA50197F1F79EA78DA78FA57C
:101E900098A9019798AB8FA78FA598A9009769F784
:101EA00014C069A97AA98BA99CA90E944900DC01E8
:101EB000CB0198AB8FA78FA598A99CA78BA78BA5C3
:101EC0009CA50197F1F79CA78BA78FE20E94CB0CF2
:101ED000882309F080C119AE7EC18EE20E94CB0C2E
:101EE000882309F078C180E090E0A0EAB1E48FA3F4
:101EF00098A7A9A7BAA76FA178A589A59AA520E058
:101F000030E04AE755E40E941F02DC01CB018BA3BD
:101F10009CA3ADA3BEA36BA17CA18DA19EA120E03B
:101F200030E040E85FE30E94250488232CF481E040
:101F300090E09AA389A33FC06BA17CA18DA19EA133
:101F400020E03FEF4FE757E40E94C50318164CF519
:101F50006FA178A589A59AA520E030E040E251E480
:101F60000E941F02DC01CB01BC01CD010E9449008F
:101F7000DC01CB019AA389A30FC080E991E098A36B
:101F80008F8F8F8D98A10197F1F798A38F8F89A1DB
:101F90009AA101979AA389A389A19AA1009769F7A9
:101FA00014C06BA17CA18DA19EA10E944900DC01FF
:101FB000CB019AA389A389A19AA19E8F8D8F8D8D24
:101FC0009E8D0197F1F79E8F8D8F8EE20E94CB0C34
:101FD000882309F000C119AEFEC08DE20E94CB0C2F
:101FE000882309F0F8C080E090E0A0EAB1E4898F8E
:101FF0009A8FAB8FBC8F698D7A8D8B8D9C8D20E0F5
:1020000030E04AE755E40E941F02DC01CB018D8BD2
:102010009E8BAF8BB88F6D897E898F89988D20E0DC
:1020200030E040E85FE30E94250488232CF481E03F
:1020300090E09C8B8B8B3FC06D897E898F89988DBA
:1020400020E03FEF4FE757E40E94C50318164CF518
:10205000698D7A8D8B8D9C8D20E030E040E251E4DB
:102060000E941F02DC01CB01BC01CD010E9449008E
:10207000DC01CB019C8B8B8B0FC080E991E09A8BAC
:10208000898B89899A890197F1F79A8B898B8B893A
:102090009C8901979C8B8B8B8B899C89009769F716
:1020A00014C06D897E898F89988D0E944900DC015A
:1020B000CB019C8B8B8B8B899C89988B8F878F8591
:1020C00098890197F1F7988B8F878DE20E94CB0C4E
:1020D000882309F080C019AE7EC08BE20E94CB0C31
:1020E000882309F078C080E090E0A0EAB1E48B8713
:1020F0009C87AD87BE876B857C858D859E8520E01E
:1021000030E04AE755E40E941F02DC01CB018F83D7
:102110009887A987BA876F81788589859A8520E015
:1021200030E040E85FE30E94250488232CF481E03E
:1021300090E09E838D833FC06F81788589859A85E5
:1021400020E03FEF4FE757E40E94C50318164CF517
:102150006B857C858D859E8520E030E040E251E4F2
:102160000E941F02DC01CB01BC01CD010E9449008D
:10217000DC01CB019E838D830FC080E991E09C83BD
:102180008B838B819C810197F1F79C838B838D815D
:102190009E8101979E838D838D819E81009769F733
:1021A00014C06F81788589859A850E944900DC0179
:1021B000CB019E838D838D819E819A8389838981C2
:1021C0009A810197F1F79A8389838BE20E94CB0C65
:1021D000882309F419AE89ADEC960FB6F894DEBFEA
:1021E0000FBECDBFCF91DF910895DF93CF9300D085
:1021F0000F92CDB7DEB789838981282F30E03B83EA
:102200002A838A819B8182309105D9F02A813B8182
:102210002330310534F48A819B818130910561F04E
:102220001EC02A813B812330310581F08A819B8148
:102230008430910581F013C080E161E00E949F0A23
:102240000EC08FE061E00E949F0A09C08EE061E04D
:102250000E949F0A04C08BE161E00E949F0A0F90D8
:102260000F900F90CF91DF910895DF93CF9300D01F
:102270000F92CDB7DEB789838981282F30E03B8369
:102280002A838A819B8182309105D9F02A813B8102
:102290002330310534F48A819B818130910561F0CE
:1022A0001EC02A813B812330310581F08A819B81C8
:1022B0008430910581F013C080E161E00E94B50B8C
:1022C0000EC08FE061E00E94B50B09C08EE061E0B6
:1022D0000E94B50B04C08BE161E00E94B50B0F902A
:1022E0000F900F90CF91DF910895DF93CF9300D09F
:1022F0000F92CDB7DEB789838981282F30E03B83E9
:102300002A838A819B8182309105D9F02A813B8181
:102310002330310534F48A819B818130910561F04D
:102320001EC02A813B812330310581F08A819B8147
:102330008430910581F013C080E160E00E94B50B0C
:102340000EC08FE060E00E94B50B09C08EE060E037
:102350000E94B50B04C08BE160E00E94B50B0F90AA
:102360000F900F90CF91DF910895DF93CF93CDB76A
:10237000DEB7EB970FB6F894DEBF0FBECDBF89AFC7
:1023800089AD282F30E03BAF2AAF8AAD9BAD8230BC
:10239000910509F493C02AAD3BAD2330310534F4E7
:1023A0008AAD9BAD8130910571F0F8C12AAD3BAD8E
:1023B0002330310509F4FDC08AAD9BAD8430910511
:1023C00009F472C1EBC180E161E00E94B50B80E0CD
:1023D00090E0A6E9B3E48DAB9EABAFABB8AF6DA90F
:1023E0007EA98FA998AD20E030E04AE755E40E942D
:1023F0001F02DC01CB0189AB9AABABABBCAB69A9CB
:102400007AA98BA99CA920E030E040E85FE30E9414
:10241000250488232CF481E090E098AB8FA73FC07F
:1024200069A97AA98BA99CA920E03FEF4FE757E45F
:102430000E94C50318164CF56DA97EA98FA998AD09
:1024400020E030E040E251E40E941F02DC01CB01B9
:10245000BC01CD010E944900DC01CB0198AB8FA7E4
:102460000FC080E991E09EA78DA78DA59EA501973D
:10247000F1F79EA78DA78FA598A9019798AB8FA775
:102480008FA598A9009769F714C069A97AA98BA9A3
:102490009CA90E944900DC01CB0198AB8FA78FA5B6
:1024A00098A99CA78BA78BA59CA50197F1F79CA742
:1024B0008BA780E160E00E94B50B70C18FE061E006
:1024C0000E94B50B80E090E0A6E9B3E48FA398A743
:1024D000A9A7BAA76FA178A589A59AA520E030E0A1
:1024E0004AE755E40E941F02DC01CB018BA39CA3A9
:1024F000ADA3BEA36BA17CA18DA19EA120E030E085
:1025000040E85FE30E94250488232CF481E090E0FA
:102510009AA389A33FC06BA17CA18DA19EA120E0BD
:102520003FEF4FE757E40E94C50318164CF56FA123
:1025300078A589A59AA520E030E040E251E40E9408
:102540001F02DC01CB01BC01CD010E944900DC016E
:10255000CB019AA389A30FC080E991E098A38F8F44
:102560008F8D98A10197F1F798A38F8F89A19AA1D8
:1025700001979AA389A389A19AA1009769F714C02A
:102580006BA17CA18DA19EA10E944900DC01CB0121
:102590009AA389A389A19AA19E8F8D8F8D8D9E8DDF
:1025A0000197F1F79E8F8D8F8FE060E00E94B50B51
:1025B000F5C08EE061E00E94B50B80E090E0A6E9F6
:1025C000B3E4898F9A8FAB8FBC8F698D7A8D8B8D99
:1025D0009C8D20E030E04AE755E40E941F02DC01B8
:1025E000CB018D8B9E8BAF8BB88F6D897E898F8948
:1025F000988D20E030E040E85FE30E9425048823C6
:102600002CF481E090E09C8B8B8B3FC06D897E89A0
:102610008F89988D20E03FEF4FE757E40E94C50374
:1026200018164CF5698D7A8D8B8D9C8D20E030E0ED
:1026300040E251E40E941F02DC01CB01BC01CD014C
:102640000E944900DC01CB019C8B8B8B0FC080E981
:1026500091E09A8B898B89899A890197F1F79A8BF6
:10266000898B8B899C8901979C8B8B8B8B899C890F
:10267000009769F714C06D897E898F89988D0E94B3
:102680004900DC01CB019C8B8B8B8B899C89988BBF
:102690008F878F8598890197F1F7988B8F878EE0C8
:1026A00060E00E94B50B7AC08BE161E00E94B50B3F
:1026B00080E090E0A6E9B3E48B879C87AD87BE8776
:1026C0006B857C858D859E8520E030E04AE755E46A
:1026D0000E941F02DC01CB018F839887A987BA87EC
:1026E0006F81788589859A8520E030E040E85FE356
:1026F0000E94250488232CF481E090E09E838D8342
:102700003FC06F81788589859A8520E03FEF4FE74C
:1027100057E40E94C50318164CF56B857C858D85A2
:102720009E8520E030E040E251E40E941F02DC017F
:10273000CB01BC01CD010E944900DC01CB019E838D
:102740008D830FC080E991E09C838B838B819C817A
:102750000197F1F79C838B838D819E8101979E83E6
:102760008D838D819E81009769F714C06F81788574
:1027700089859A850E944900DC01CB019E838D8367
:102780008D819E819A83898389819A810197F1F74E
:102790009A8389838BE160E00E94B50BEB960FB6BC
:1027A000F894DEBF0FBECDBFCF91DF910895DF93C8
:1027B000CF9300D00F92CDB7DEB789838981282FC0
:1027C00030E03B832A838A819B8182309105D1F05E
:1027D0002A813B812330310534F48A819B81813009
:1027E000910561F01AC02A813B812330310571F0D7
:1027F0008A819B818430910569F00FC080E10E943D
:10280000530D0BC08FE00E94530D07C08EE00E9455
:10281000530D03C08BE10E94530D0F900F900F904A
:10282000CF91DF910895DF93CF93CDB7DEB784E1E9
:1028300061E00E949F0A85E161E00E949F0A86E1B3
:1028400061E00E949F0A88E161E00E949F0A8DE09A
:1028500061E00E949F0A8CE061E00E949F0A83E38E
:102860000E947D1682E30E947D1688E20E947D16FA
:102870008CE00E947D1682E00E947D1681E00E941D
:102880007D16CF91DF910895DF93CF93CDB7DEB75B
:10289000E9970FB6F894DEBF0FBECDBF89AF8DE0CC
:1028A00061E00E94B50B89AD82958F70982F917071
:1028B00084E1692F0E94B50B89AD8295869587705A
:1028C000982F917085E1692F0E94B50B89AD829593
:1028D000869586958370982F917086E1692F0E9466
:1028E000B50B89AD982F991F9927991F88E1692FFA
:1028F0000E94B50B8CE061E00E94B50B80E090E097
:10290000A0E8BFE38DAB9EABAFABB8AF6DA97EA91E
:102910008FA998AD20E030E04AE755E40E941F02FD
:10292000DC01CB0189AB9AABABABBCAB69A97AA993
:102930008BA99CA920E030E040E85FE30E942504D9
:1029400088232CF481E090E098AB8FA73FC069A961
:102950007AA98BA99CA920E03FEF4FE757E40E949A
:10296000C50318164CF56DA97EA98FA998AD20E076
:1029700030E040E251E40E941F02DC01CB01BC01C7
:10298000CD010E944900DC01CB0198AB8FA70FC09D
:1029900080E991E09EA78DA78DA59EA50197F1F7EF
:1029A0009EA78DA78FA598A9019798AB8FA78FA5F4
:1029B00098A9009769F714C069A97AA98BA99CA95D
:1029C0000E944900DC01CB0198AB8FA78FA598A985
:1029D0009CA78BA78BA59CA50197F1F79CA78BA71C
:1029E0008CE060E00E94B50B80E090E0A0E8BFE3DF
:1029F0008FA398A7A9A7BAA76FA178A589A59AA51B
:102A000020E030E04AE755E40E941F02DC01CB01E0
:102A10008BA39CA3ADA3BEA36BA17CA18DA19EA102
:102A200020E030E040E85FE30E94250488232CF496
:102A300081E090E09AA389A33FC06BA17CA18DA106
:102A40009EA120E03FEF4FE757E40E94C503181610
:102A50004CF56FA178A589A59AA520E030E040E269
:102A600051E40E941F02DC01CB01BC01CD010E9498
:102A70004900DC01CB019AA389A30FC080E991E052
:102A800098A38F8F8F8D98A10197F1F798A38F8FBF
:102A900089A19AA101979AA389A389A19AA10097D4
:102AA00069F714C06BA17CA18DA19EA10E94490071
:102AB000DC01CB019AA389A389A19AA19E8F8D8F56
:102AC0008D8D9E8D0197F1F79E8F8D8F89AD982FFB
:102AD000917084E1692F0E94B50B89AD8695982F7E
:102AE000917085E1692F0E94B50B89AD8695869519
:102AF000982F917086E1692F0E94B50B89AD86955C
:102B000086958695982F917088E1692F0E94B50B64
:102B10008CE061E00E94B50B80E090E0A0E8BFE3AC
:102B2000898F9A8FAB8FBC8F698D7A8D8B8D9C8DA1
:102B300020E030E04AE755E40E941F02DC01CB01AF
:102B40008D8B9E8BAF8BB88F6D897E898F89988D89
:102B500020E030E040E85FE30E94250488232CF465
:102B600081E090E09C8B8B8B3FC06D897E898F8943
:102B7000988D20E03FEF4FE757E40E94C5031816F9
:102B80004CF5698D7A8D8B8D9C8D20E030E040E294
:102B900051E40E941F02DC01CB01BC01CD010E9467
:102BA0004900DC01CB019C8B8B8B0FC080E991E04D
:102BB0009A8B898B89899A890197F1F79A8B898BEE
:102BC0008B899C8901979C8B8B8B8B899C89009727
:102BD00069F714C06D897E898F89988D0E9449009C
:102BE000DC01CB019C8B8B8B8B899C89988B8F878D
:102BF0008F8598890197F1F7988B8F878CE060E03B
:102C00000E94B50B80E090E0A0EAB0E48B879C873F
:102C1000AD87BE876B857C858D859E8520E030E005
:102C20004AE755E40E941F02DC01CB018F8398879D
:102C3000A987BA876F81788589859A8520E030E0F9
:102C400040E85FE30E94250488232CF481E090E0B3
:102C50009E838D833FC06F81788589859A8520E02A
:102C60003FEF4FE757E40E94C50318164CF56B85FC
:102C70007C858D859E8520E030E040E251E40E9415
:102C80001F02DC01CB01BC01CD010E944900DC0127
:102C9000CB019E838D830FC080E991E09C838B8361
:102CA0008B819C810197F1F79C838B838D819E8121
:102CB00001979E838D838D819E81009769F714C053
:102CC0006F81788589859A850E944900DC01CB0156
:102CD0009E838D838D819E819A83898389819A8148
:102CE0000197F1F79A838983E9960FB6F894DEBFCE
:102CF0000FBECDBFCF91DF910895DF93CF93CDB7B6
:102D0000DEB7E9970FB6F894DEBF0FBECDBF89AF2F
:102D10008DE060E00E94B50B89AD82958F70982F91
:102D2000917084E1692F0E94B50B89AD82958695DB
:102D30008770982F917085E1692F0E94B50B89AD3E
:102D40008295869586958370982F917086E1692F7C
:102D50000E94B50B89AD982F991F9927991F88E17B
:102D6000692F0E94B50B8CE061E00E94B50B80E0FA
:102D700090E0A0E8BFE38DAB9EABAFABB8AF6DA961
:102D80007EA98FA998AD20E030E04AE755E40E9483
:102D90001F02DC01CB0189AB9AABABABBCAB69A921
:102DA0007AA98BA99CA920E030E040E85FE30E946B
:102DB000250488232CF481E090E098AB8FA73FC0D6
:102DC00069A97AA98BA99CA920E03FEF4FE757E4B6
:102DD0000E94C50318164CF56DA97EA98FA998AD60
:102DE00020E030E040E251E40E941F02DC01CB0110
:102DF000BC01CD010E944900DC01CB0198AB8FA73B
:102E00000FC080E991E09EA78DA78DA59EA5019793
:102E1000F1F79EA78DA78FA598A9019798AB8FA7CB
:102E20008FA598A9009769F714C069A97AA98BA9F9
:102E30009CA90E944900DC01CB0198AB8FA78FA50C
:102E400098A99CA78BA78BA59CA50197F1F79CA798
:102E50008BA78CE060E00E94B50B80E090E0A0E8DA
:102E6000BFE38FA398A7A9A7BAA76FA178A589A543
:102E70009AA520E030E04AE755E40E941F02DC01F9
:102E8000CB018BA39CA3ADA3BEA36BA17CA18DA101
:102E90009EA120E030E040E85FE30E942504882303
:102EA0002CF481E090E09AA389A33FC06BA17CA1A0
:102EB0008DA19EA120E03FEF4FE757E40E94C5039C
:102EC00018164CF56FA178A589A59AA520E030E0E9
:102ED00040E251E40E941F02DC01CB01BC01CD01A4
:102EE0000E944900DC01CB019AA389A30FC080E9AD
:102EF00091E098A38F8F8F8D98A10197F1F798A3F8
:102F00008F8F89A19AA101979AA389A389A19AA1D8
:102F1000009769F714C06BA17CA18DA19EA10E94AE
:102F20004900DC01CB019AA389A389A19AA19E8FB4
:102F30008D8F8D8D9E8D0197F1F79E8F8D8F89AD31
:102F4000982F917084E1692F0E94B50B89AD869509
:102F5000982F917085E1692F0E94B50B89AD8695F8
:102F60008695982F917086E1692F0E94B50B89ADE7
:102F7000869586958695982F917088E1692F0E9495
:102F8000B50B8CE061E00E94B50B80E090E0A0E81A
:102F9000BFE3898F9A8FAB8FBC8F698D7A8D8B8DB4
:102FA0009C8D20E030E04AE755E40E941F02DC01DE
:102FB000CB018D8B9E8BAF8BB88F6D897E898F896E
:102FC000988D20E030E040E85FE30E9425048823EC
:102FD0002CF481E090E09C8B8B8B3FC06D897E89C7
:102FE0008F89988D20E03FEF4FE757E40E94C5039B
:102FF00018164CF5698D7A8D8B8D9C8D20E030E014
:1030000040E251E40E941F02DC01CB01BC01CD0172
:103010000E944900DC01CB019C8B8B8B0FC080E9A7
:1030200091E09A8B898B89899A890197F1F79A8B1C
:10303000898B8B899C8901979C8B8B8B8B899C8935
:10304000009769F714C06D897E898F89988D0E94D9
:103050004900DC01CB019C8B8B8B8B899C89988BE5
:103060008F878F8598890197F1F7988B8F878CE0F0
:1030700060E00E94B50B80E090E0A0EAB0E48B87AE
:103080009C87AD87BE876B857C858D859E8520E07E
:1030900030E04AE755E40E941F02DC01CB018F8338
:1030A0009887A987BA876F81788589859A8520E076
:1030B00030E040E85FE30E94250488232CF481E09F
:1030C00090E09E838D833FC06F81788589859A8546
:1030D00020E03FEF4FE757E40E94C50318164CF578
:1030E0006B857C858D859E8520E030E040E251E453
:1030F0000E941F02DC01CB01BC01CD010E944900EE
:10310000DC01CB019E838D830FC080E991E09C831D
:103110008B838B819C810197F1F79C838B838D81BD
:103120009E8101979E838D838D819E81009769F793
:1031300014C06F81788589859A850E944900DC01D9
:10314000CB019E838D838D819E819A838983898122
:103150009A810197F1F79A838983E9960FB6F894DB
:10316000DEBF0FBECDBFCF91DF910895DF93CF9328
:1031700000D00F92CDB7DEB79B838A8319820EC031
:103180008981282F30E08A819B81FC01E20FF31FA7
:1031900080810E94441489818F5F89838981282FCF
:1031A00030E08A819B81FC01E20FF31F808188233C
:1031B00039F70F900F900F90CF91DF910895DF9323
:1031C000CF93CDB7DEB781E00E947D16CF91DF911E
:1031D00008950F931F93DF93CF93CDB7DEB72F974B
:1031E0000FB6F894DEBF0FBECDBF6C877D878E878C
:1031F0009F8719828AE0FE013296DF01982F1D9287
:103200009A95E9F78C859D85AE85BF85BB2394F49F
:103210008C859D85AE85BF85B095A095909581954F
:103220009F4FAF4FBF4F8C879D87AE87BF878DE283
:103230000E9444148981082F112707FD10958C8561
:103240009D85AE85BF852AE030E040E050E0BC01BE
:10325000CD010E94AF26DC01CB01282FCE010296C2
:10326000FC01E00FF11F20838C859D85AE85BF8515
:103270002AE030E040E050E0BC01CD010E94AF26E2
:10328000DA01C9018C879D87AE87BF8789818F5FEF
:1032900089838C859D85AE85BF850097A105B10585
:1032A00049F611C08981815089838981282F33276C
:1032B00027FD3095CE010296FC01E20FF31F8081BD
:1032C000805D0E9444148981181664F32F960FB60E
:1032D000F894DEBF0FBECDBFCF91DF911F910F914C
:1032E0000895DF93CF9300D000D000D0CDB7DEB7E4
:1032F0008D836E8380E8898380EC8A8384E98B8365
:1033000084ED8C838D81282F30E0CE010196FC0165
:10331000E20FF31F90818E81890F0E947D16269601
:103320000FB6F894DEBF0FBECDBFCF91DF910895E9
:10333000DF93CF93CDB7DEB782E261E00E949F0AB0
:1033400081E261E00E949F0A80E261E00E949F0AA0
:1033500082E261E00E94B50B81E261E00E94B50B60
:1033600080E261E00E94B50B8FE260E00E949F0A5C
:103370008EE260E00E949F0A8DE260E00E949F0A58
:10338000CF91DF910895DF93CF93CDB7DEB7AF979D
:103390000FB6F894DEBF0FBECDBFCE0142969AA302
:1033A00089A3E7E1F2E0FCA3EBA3F3E0FDA3EBA12B
:1033B000FCA100808BA19CA101969CA38BA3E9A1F9
:1033C000FAA1008289A19AA101969AA389A39DA13D
:1033D00091509DA3EDA1EE2351F7CE0145969FA3F9
:1033E0008EA3E4E1F2E0F9A7E8A7F3E0FAA7E8A5E5
:1033F000F9A5008088A599A5019699A788A7EEA1AF
:10340000FFA100828EA19FA101969FA38EA39AA5E2
:1034100091509AA7EAA5EE2351F7CE0148969CA7B2
:103420008BA7EBE0F2E0FEA7EDA7F9E0FFA7EDA583
:10343000FEA500808DA59EA501969EA78DA7EBA554
:10344000FCA500828BA59CA501969CA78BA79FA598
:1034500091509FA7EFA5EE2351F781E0898B188A41
:103460001F86188AC8C08889282F30E0CE0142966E
:10347000FC01E20FF31F808160E00E94B50B1F8604
:10348000A7C08F85282F30E0CE014596FC01E20FC2
:10349000F31F80810E94CB0C882309F096C080E046
:1034A00090E0A0E2B2E48B879C87AD87BE876B85F6
:1034B0007C858D859E8520E030E04AE755E40E94BA
:1034C0001F02DC01CB018F839887A987BA876F81A0
:1034D000788589859A8520E030E040E85FE30E94A6
:1034E000250488232CF481E090E09E838D833FC0E7
:1034F0006F81788589859A8520E03FEF4FE757E413
:103500000E94C50318164CF56B857C858D859E85BC
:1035100020E030E040E251E40E941F02DC01CB01D8
:10352000BC01CD010E944900DC01CB019E838D834B
:103530000FC080E991E09C838B838B819C810197F4
:10354000F1F79C838B838D819E8101979E838D8370
:103550008D819E81009769F714C06F817885898578
:103560009A850E944900DC01CB019E838D838D8169
:103570009E819A83898389819A810197F1F79A8341
:1035800089838F85282F30E0CE014596FC01E20F1C
:10359000F31F80810E94CB0C8823B9F48889282FDF
:1035A00030E08F85482F50E0C901880F991F820FA6
:1035B000931F9E012F5F3F4F820F931F840F951F14
:1035C000FC0177968081898B07C08F858F5F8F87FD
:1035D0008F85833008F455CF8889282F30E0CE01BD
:1035E0004296FC01E20FF31F808161E00E94B50B5F
:1035F00088898F5F888B8889833008F434CF8989E4
:10360000AF960FB6F894DEBF0FBECDBFCF91DF915E
:103610000895DF93CF93CDB7DEB784E261E00E94D7
:103620009F0ACF91DF910895DF93CF93CDB7DEB797
:1036300084E261E00E94B50BCF91DF910895DF93A2
:10364000CF93CDB7DEB784E260E00E94B50BCF9197
:10365000DF910895DF93CF93CDB7DEB784E20E9468
:10366000530DCF91DF910895DF93CF93CDB7DEB7A0
:103670002E970FB6F894DEBF0FBECDBF84E261E097
:103680000E94B50B80E090E0A0EAB2E48B879C87B3
:10369000AD87BE876B857C858D859E8520E030E07B
:1036A0004AE755E40E941F02DC01CB018F83988713
:1036B000A987BA876F81788589859A8520E030E06F
:1036C00040E85FE30E94250488232CF481E090E029
:1036D0009E838D833FC06F81788589859A8520E0A0
:1036E0003FEF4FE757E40E94C50318164CF56B8572
:1036F0007C858D859E8520E030E040E251E40E948B
:103700001F02DC01CB01BC01CD010E944900DC019C
:10371000CB019E838D830FC080E991E09C838B83D6
:103720008B819C810197F1F79C838B838D819E8196
:1037300001979E838D838D819E81009769F714C0C8
:103740006F81788589859A850E944900DC01CB01CB
:103750009E838D838D819E819A83898389819A81BD
:103760000197F1F79A83898384E260E00E94B50BA8
:103770002E960FB6F894DEBF0FBECDBFCF91DF916E
:103780000895DF93CF93CDB7DEB7AA970FB6F8941D
:10379000DEBF0FBECDBF84E261E00E94B50B80E0CA
:1037A00090E0A0EAB2E48FA398A7A9A7BAA76FA157
:1037B00078A589A59AA520E030E04AE755E40E9463
:1037C0001F02DC01CB018BA39CA3ADA3BEA36BA105
:1037D0007CA18DA19EA120E030E040E85FE30E9443
:1037E000250488232CF481E090E09AA389A33FC0AC
:1037F0006BA17CA18DA19EA120E03FEF4FE757E494
:103800000E94C50318164CF56FA178A589A59AA545
:1038100020E030E040E251E40E941F02DC01CB01D5
:10382000BC01CD010E944900DC01CB019AA389A310
:103830000FC080E991E098A38F8F8F8D98A1019799
:10384000F1F798A38F8F89A19AA101979AA389A3D1
:1038500089A19AA1009769F714C06BA17CA18DA1E1
:103860009EA10E944900DC01CB019AA389A389A1F2
:103870009AA19E8F8D8F8D8D9E8D0197F1F79E8FD2
:103880008D8F84E260E00E94B50B80E090E0A0E7BD
:10389000B2E4898F9A8FAB8FBC8F698D7A8D8B8DB7
:1038A0009C8D20E030E04AE755E40E941F02DC01D5
:1038B000CB018D8B9E8BAF8BB88F6D897E898F8965
:1038C000988D20E030E040E85FE30E9425048823E3
:1038D0002CF481E090E09C8B8B8B3FC06D897E89BE
:1038E0008F89988D20E03FEF4FE757E40E94C50392
:1038F00018164CF5698D7A8D8B8D9C8D20E030E00B
:1039000040E251E40E941F02DC01CB01BC01CD0169
:103910000E944900DC01CB019C8B8B8B0FC080E99E
:1039200091E09A8B898B89899A890197F1F79A8B13
:10393000898B8B899C8901979C8B8B8B8B899C892C
:10394000009769F714C06D897E898F89988D0E94D0
:103950004900DC01CB019C8B8B8B8B899C89988BDC
:103960008F878F8598890197F1F7988B8F8784E2ED
:1039700061E00E94B50B80E090E0A0EAB2E48B87A2
:103980009C87AD87BE876B857C858D859E8520E075
:1039900030E04AE755E40E941F02DC01CB018F832F
:1039A0009887A987BA876F81788589859A8520E06D
:1039B00030E040E85FE30E94250488232CF481E096
:1039C00090E09E838D833FC06F81788589859A853D
:1039D00020E03FEF4FE757E40E94C50318164CF56F
:1039E0006B857C858D859E8520E030E040E251E44A
:1039F0000E941F02DC01CB01BC01CD010E944900E5
:103A0000DC01CB019E838D830FC080E991E09C8314
:103A10008B838B819C810197F1F79C838B838D81B4
:103A20009E8101979E838D838D819E81009769F78A
:103A300014C06F81788589859A850E944900DC01D0
:103A4000CB019E838D838D819E819A838983898119
:103A50009A810197F1F79A83898384E260E00E945A
:103A6000B50BAA960FB6F894DEBF0FBECDBFCF91AF
:103A7000DF910895DF93CF93CDB7DEB78091370202
:103A80008F5F80933702809127028130E1F480912B
:103A90002F02282F30E080912C0290912D022817C0
:103AA000390788F480913702882F90E081709070F8
:103AB000009729F485E261E00E94B50B04C085E21D
:103AC00060E00E94B50B80910802823349F4809136
:103AD0002F02882329F080912F02855080932F0296
:103AE00080910802833349F480912F02843628F4B0
:103AF00080912F028B5F80932F02809137028A3052
:103B000041F480912802813011F410920902109240
:103B1000370280913702882F90E081709070009773
:103B2000C9F580913402282F30E0809135029091C0
:103B30003602820F931F9093360280933502809154
:103B4000300290913102A0913202B091330201967D
:103B5000A11DB11D8093300290933102A0933202D7
:103B6000B09333028091300290913102A0913202E1
:103B7000B0913302803821E5920721E0A20720E0CE
:103B8000B20741F4109230021092310210923202C8
:103B900010923302CF91DF910895DF93CF93CDB789
:103BA000DEB70E94DF0D0E94981983E00E946F0E1D
:103BB00084E00E94F51081E00E94F5100E94091B2C
:103BC0000E94131485E261E00E949F0A0E94170779
:103BD00064EF71E080E090E00E943A078AE39DE1A3
:103BE0000E94100980E00E94A507CF91DF910895FF
:103BF000DF93CF9300D0CDB7DEB70E94C319809377
:103C0000080280910802282F30E03A8329838981B5
:103C10009A8186339105B9F129813A81273331059B
:103C200084F489819A818433910509F129813A814B
:103C30002533310514F589819A818133910589F005
:103C400034C029813A812833310549F189819A812B
:103C500088339105F4F029813A812933310541F106
:103C600024C081E0809309020E94F62521C081E0F2
:103C7000809309020E9475241BC081E08093090291
:103C80000E94342515C081E0809309020E946E23B2
:103C90000FC081E0809309020E94482309C081E09F
:103CA000809309020E945B2303C081E00E9475118A
:103CB0000F900F90CF91DF910895DF93CF93CDB701
:103CC000DEB783E00E94BE0E882339F481E0809342
:103CD000090284E00E94351103C084E00E9475113E
:103CE000CF91DF910895DF93CF9300D0CDB7DEB7AA
:103CF00080912B02282F30E03A83298389819A8191
:103D000081309105C1F029813A81223031052CF4AE
:103D100089819A81009761F016C029813A81223009
:103D2000310561F089819A818330910551F00BC092
:103D30000E944E2108C00E940F2205C00E949D22B1
:103D400002C00E9425230F900F90CF91DF9108951C
:103D5000DF93CF93CDB7DEB780E00E941E0ECC017B
:103D6000A0E0B0E0BC01CD010E94A904DC01CB01C0
:103D7000BC01CD0120E030EC4FE754E40E94190370
:103D8000DC01CB01BC01CD0120E030E048E453E48C
:103D90000E941F02DC01CB01BC01CD010E94490041
:103DA000DC01CB0190932D0280932C0280912E0296
:103DB000882F90E001969C0180912C0290912D0219
:103DC0002817390779F180912E02882F90E001970A
:103DD0009C0180912C0290912D022817390711F136
:103DE00080912E02282F30E080912C0290912D029C
:103DF00028173907B9F081E080930902109229024F
:103E000080912B02813041F481E065E00E947119BC
:103E100080E690E00E94B61880912C0290912D02CD
:103E200080932E0280912C0290912D02009759F0E0
:103E300080912C0290912D028932910520F481E02D
:103E4000809334024AC080912C0290912D028932D5
:103E5000910558F080912C0290912D0281359105A9
:103E600020F482E08093340238C080912C0290913B
:103E70002D028135910558F080912C0290912D02F0
:103E80008937910520F483E08093340226C0809125
:103E90002C0290912D028937910558F080912C02C7
:103EA00090912D02813A910520F484E080933402B0
:103EB00014C080912C0290912D02813A910558F006
:103EC00080912C0290912D02893C910520F485E08F
:103ED0008093340202C01092340280912B02882316
:103EE00009F040C080E067E00E94711980912C02C7
:103EF00090912D0224E630E0B9010E947926CB0191
:103F0000CC01A0E0B0E0BC01CD010E94E918809195
:103F10002C0290912D0224E630E0B9010E9479260E
:103F20002AE030E0B9010E947926CB01CC01A0E063
:103F3000B0E0BC01CD010E94E91880912C02909163
:103F40002D0224E630E0B9010E9479262AE030E013
:103F5000B9010E947926CC01A0E0B0E0BC01CD01FE
:103F60000E94E91880912B028823C9F581E067E05F
:103F70000E94711980912F0294E6692F0E946D268C
:103F8000882F90E0A0E0B0E0BC01CD010E94E918CC
:103F900080912F0294E6692F0E946D26892F9AE066
:103FA000692F0E946D26882F90E0A0E0B0E0BC0150
:103FB000CD010E94E91880912F0294E6692F0E949A
:103FC0006D26892F9AE0692F0E946D26892F882FF0
:103FD00090E0A0E0B0E0BC01CD010E94E918CF91D3
:103FE000DF910895DF93CF93CDB7DEB780910902BB
:103FF000813049F482E060E00E94711984E690E02B
:104000000E94B6180CC080910902882341F482E016
:1040100060E00E94711985E790E00E94B618CF9188
:10402000DF910895DF93CF93CDB7DEB780912B0258
:10403000833009F0E4C081E060E00E94711986E8F5
:1040400090E00E94B6188091300290913102A091C8
:104050003202B091330220EA3CE840E050E0BC017B
:10406000CD010E948D26DA01C901BC01CD010E945B
:10407000E9188091300290913102A0913202B09102
:10408000330220E13EE040E050E0BC01CD010E945F
:104090008D26DA01C9012AE030E040E050E0BC01A1
:1040A000CD010E948D26DC01CB01BC01CD010E9417
:1040B000E9188EE890E00E94B61880913002909145
:1040C0003102A0913202B091330220E13EE040E0A3
:1040D00050E0BC01CD010E948D26DC01CB0128E51A
:1040E00032E040E050E0BC01CD010E948D26DA01B3
:1040F000C901BC01CD010E94E91880913002909164
:104100003102A0913202B091330220E13EE040E062
:1041100050E0BC01CD010E948D26DC01CB012CE3D7
:1041200030E040E050E0BC01CD010E948D26DA0174
:10413000C9012AE030E040E050E0BC01CD010E941E
:104140008D26DC01CB01BC01CD010E94E9188EE86F
:1041500090E00E94B6188091300290913102A091B7
:104160003202B091330220E13EE040E050E0BC0179
:10417000CD010E948D26DC01CB012CE330E040E034
:1041800050E0BC01CD010E948D26DC01CB012AE06C
:1041900030E040E050E0BC01CD010E948D26DA0104
:1041A000C901BC01CD010E94E918809130029091B3
:1041B0003102A0913202B091330220E13EE040E0B2
:1041C00050E0BC01CD010E948D26DC01CB012CE327
:1041D00030E040E050E0BC01CD010E948D26DC01C2
:1041E000CB012AE030E040E050E0BC01CD010E946C
:1041F0008D26DC01CB01BC01CD010E94E918CF91D5
:10420000DF910895DF93CF93CDB7DEB780912B0276
:10421000823009F040C080E06DE00E947119809109
:1042200035029091360224E630E0B9010E947926E9
:10423000CB01CC01A0E0B0E0BC01CD010E94E918A7
:10424000809135029091360224E630E0B9010E9457
:1042500079262AE030E0B9010E947926CB01CC0111
:10426000A0E0B0E0BC01CD010E94E91880913502C8
:104270009091360224E630E0B9010E9479262AE0C6
:1042800030E0B9010E947926CC01A0E0B0E0BC0189
:10429000CD010E94E918CF91DF910895DF93CF936C
:1042A00000D0CDB7DEB780910A02813009F0B2C0EC
:1042B00010920A020E94DF1880E990E00E94B6186E
:1042C00080912C0290912D0224E630E0B9010E94E9
:1042D0007926CB01CC01A0E0B0E0BC01CD010E9469
:1042E000E91880912C0290912D0224E630E0B9016A
:1042F0000E9479262AE030E0B9010E947926CB019C
:10430000CC01A0E0B0E0BC01CD010E94E918809191
:104310002C0290912D0224E630E0B9010E9479260A
:104320002AE030E0B9010E947926CC01A0E0B0E09B
:10433000BC01CD010E94E91888E990E00E94B618FE
:1043400081E060E00E9471198DE990E00E94B6184A
:1043500080912F0294E6692F0E946D26882F90E0AD
:10436000A0E0B0E0BC01CD010E94E91880912F02CD
:1043700094E6692F0E946D26892F9AE0692F0E948A
:104380006D26882F90E0A0E0B0E0BC01CD010E9436
:10439000E91880912F0294E6692F0E946D26892FDB
:1043A0009AE0692F0E946D26892F882F90E0A0E067
:1043B000B0E0BC01CD010E94E91888E990E00E94BC
:1043C000B61880912702282F30E03A83298389810B
:1043D0009A81009731F029813A812130310531F0FD
:1043E00009C085EA90E00E94B61804C08BEA90E00C
:1043F0000E94B61883E068E00E9471198FED0E9458
:10440000441481EA0E94441481EA0E94441481EA1F
:104410000E9444140F900F90CF91DF910895DF9385
:10442000CF9300D000D000D0CDB7DEB780910A0284
:10443000813009F079C010920A020E94DF1880EBE7
:1044400090E00E94B61880912802282F30E03E8329
:104450002D838D819E818130910569F02D813E8172
:104460002230310561F08D819E81009759F48EE4F0
:104470000E94441407C084E40E94441403C082E5EF
:104480000E94441481E060E00E94711987EB90E083
:104490000E94B61880912902282F30E03C832B839C
:1044A0008B819C81009731F02B813C81213031053B
:1044B00031F009C08DEB90E00E94B61804C081EC89
:1044C00090E00E94B61881E06BE00E94711984ECC4
:1044D00090E00E94B61880912A02282F30E03A839B
:1044E000298389819A81009731F029813A8121308D
:1044F000310531F009C08DEB90E00E94B61804C080
:1045000081EC90E00E94B61883E068E00E94711987
:1045100081EA0E9444148FED0E94441481EA0E94B3
:10452000441481EA0E94441426960FB6F894DEBF24
:104530000FBECDBFCF91DF910895DF93CF93CDB75D
:10454000DEB780910A02813009F07CC010920A0225
:104550000E94DF188AEC90E00E94B6188091350224
:104560009091360224E630E0B9010E947926CB0111
:10457000CC01A0E0B0E0BC01CD010E94E91880911F
:1045800035029091360224E630E0B9010E94792686
:104590002AE030E0B9010E947926CB01CC01A0E0ED
:1045A000B0E0BC01CD010E94E918809135029091E4
:1045B000360224E630E0B9010E9479262AE030E094
:1045C000B9010E947926CC01A0E0B0E0BC01CD0188
:1045D0000E94E91888ED90E00E94B61881E065E03D
:1045E0000E9471198CED90E00E94B61881EA0E9439
:1045F000441481EA0E94441481EA0E94441481EA2E
:104600000E94441481EA0E94441481EA0E944414E6
:1046100081EA0E94441481EA0E9444148EED90E0E5
:104620000E94B61883E068E00E94711981EA0E9436
:10463000441481EA0E9444148FED0E94441481EADC
:104640000E944414CF91DF910895DF93CF93CDB7AB
:10465000DEB780910A028130C1F410920A020E94F2
:10466000DF1880EE90E00E94B61883E068E00E94B8
:10467000711981EA0E94441481EA0E94441481EA7B
:104680000E9444148FED0E944414CF91DF9108954D
:10469000DF93CF93CDB7DEB780912B02882341F013
:1046A00080912B02815080932B0281E080930A023B
:1046B000CF91DF910895DF93CF93CDB7DEB780918F
:1046C0002B02833040F480912B028F5F80932B026A
:1046D00081E080930A02CF91DF910895DF93CF9319
:1046E000CDB7DEB760970FB6F894DEBF0FBECDBF73
:1046F0000E94141B80E090E0A8E4B2E48B879C87C2
:10470000AD87BE876B857C858D859E8520E030E0FA
:104710004AE755E40E941F02DC01CB018F83988792
:10472000A987BA876F81788589859A8520E030E0EE
:1047300040E85FE30E94250488232CF481E090E0A8
:104740009E838D833FC06F81788589859A8520E01F
:104750003FEF4FE757E40E94C50318164CF56B85F1
:104760007C858D859E8520E030E040E251E40E940A
:104770001F02DC01CB01BC01CD010E944900DC011C
:10478000CB019E838D830FC080E991E09C838B8356
:104790008B819C810197F1F79C838B838D819E8116
:1047A00001979E838D838D819E81009769F714C048
:1047B0006F81788589859A850E944900DC01CB014B
:1047C0009E838D838D819E819A83898389819A813D
:1047D0000197F1F79A8389830E941F1B83E00E944F
:1047E000BE0E882309F075C081E08093090281E044
:1047F000809307021092290280912802282F30E02E
:10480000388B2F878F8598898130910509F43EC0B8
:104810002F8538892230310529F08F8598890097B6
:1048200019F15AC080912B028130B9F480E066E022
:104830000E9471198EE40E94441481E065E00E9498
:1048400071198DEB90E00E94B61881E060E10E9442
:1048500071198DEB90E00E94B61810922702109209
:10486000280210922A0238C080912B02813039F43C
:1048700080E066E00E94711984E40E94441481E0A3
:104880008093280281E080932A0226C080912B0227
:104890008130B9F480E066E00E94711982E50E94DF
:1048A000441481E065E00E9471198DEB90E00E9454
:1048B000B61881E060E10E9471198DEB90E00E94D2
:1048C000B6181092270282E08093280210922A02E2
:1048D00003C081E00E94351160960FB6F894DEBFE8
:1048E0000FBECDBFCF91DF910895DF93CF93CDB7AA
:1048F000DEB760970FB6F894DEBF0FBECDBF0E9443
:10490000141B80E090E0A8E4B2E48B879C87AD871D
:10491000BE876B857C858D859E8520E030E04AE7EB
:1049200055E40E941F02DC01CB018F839887A98781
:10493000BA876F81788589859A8520E030E040E8E4
:104940005FE30E94250488232CF481E090E09E839D
:104950008D833FC06F81788589859A8520E03FEF00
:104960004FE757E40E94C50318164CF56B857C850C
:104970008D859E8520E030E040E251E40E941F02D8
:10498000DC01CB01BC01CD010E944900DC01CB015F
:104990009E838D830FC080E991E09C838B838B8104
:1049A0009C810197F1F79C838B838D819E81019778
:1049B0009E838D838D819E81009769F714C06F81DE
:1049C000788589859A850E944900DC01CB019E8308
:1049D0008D838D819E819A83898389819A810197B4
:1049E000F1F79A8389830E941F1B809128028130EE
:1049F00079F580912902282F30E0388B2F878F8519
:104A00009889009731F02F8538892130310589F058
:104A100022C080912B02813041F481E065E00E9448
:104A2000711981EF90E00E94B61881E0809329020D
:104A300012C080912B02813041F481E065E00E9438
:104A400071198DEB90E00E94B6181092290203C0F4
:104A500081E00E94351160960FB6F894DEBF0FBE5C
:104A6000CDBFCF91DF910895DF93CF93CDB7DEB760
:104A700060970FB6F894DEBF0FBECDBF0E94141B27
:104A800080E090E0A8E4B2E48B879C87AD87BE8786
:104A90006B857C858D859E8520E030E04AE755E476
:104AA0000E941F02DC01CB018F839887A987BA87F8
:104AB0006F81788589859A8520E030E040E85FE362
:104AC0000E94250488232CF481E090E09E838D834E
:104AD0003FC06F81788589859A8520E03FEF4FE759
:104AE00057E40E94C50318164CF56B857C858D85AF
:104AF0009E8520E030E040E251E40E941F02DC018C
:104B0000CB01BC01CD010E944900DC01CB019E8399
:104B10008D830FC080E991E09C838B838B819C8186
:104B20000197F1F79C838B838D819E8101979E83F2
:104B30008D838D819E81009769F714C06F81788580
:104B400089859A850E944900DC01CB019E838D8373
:104B50008D819E819A83898389819A810197F1F75A
:104B60009A8389830E941F1B80912802813091F5CE
:104B700081E08093090280912A02282F30E0388B4F
:104B80002F878F859889009731F02F8538892130BC
:104B9000310589F022C080912B02813041F481E0FF
:104BA00060E10E94711981EF90E00E94B61881E0E7
:104BB00080932A0212C080912B02813041F481E05F
:104BC00060E10E9471198DEB90E00E94B61810927E
:104BD0002A0203C081E00E94351160960FB6F89456
:104BE000DEBF0FBECDBFCF91DF910895DF93CF938E
:104BF00000D0CDB7DEB780912802813091F581E0F9
:104C00008093090280912702282F30E03A8329837C
:104C100089819A81009731F029813A8121303105CB
:104C200089F022C081E08093270280912B028823A3
:104C3000D9F481E06FE00E94711985EF90E00E9445
:104C4000B61812C01092270280912B02882361F4BB
:104C500081E06FE00E9471198AEF90E00E94B6181F
:104C600003C081E00E9435110F900F90CF91DF912A
:104C70000895DF93CF93CDB7DEB70E94CD1D0E947C
:104C80005D1E0E94F81D0E94731E0E94A81E0E94B5
:104C9000F21F0E9412200E940221F1CF629FD001D8
:104CA000739FF001829FE00DF11D649FE00DF11DE7
:104CB000929FF00D839FF00D749FF00D659FF00D96
:104CC0009927729FB00DE11DF91F639FB00DE11D83
:104CD000F91FBD01CF0111240895991B79E004C08B
:104CE000991F961708F0961B881F7A95C9F780952B
:104CF0000895AA1BBB1B51E107C0AA1FBB1FA61723
:104D0000B70710F0A61BB70B881F991F5A95A9F774
:104D100080959095BC01CD010895A1E21A2EAA1BA1
:104D2000BB1BFD010DC0AA1FBB1FEE1FFF1FA2175B
:104D3000B307E407F50720F0A21BB30BE40BF50B58
:104D4000661F771F881F991F1A9469F760957095E1
:104D5000809590959B01AC01BD01CF01089597FB13
:104D6000092E05260ED057FD04D0D7DF0AD0001C2F
:104D700038F450954095309521953F4F4F4F5F4FF8
:104D80000895F6F790958095709561957F4F8F4FB8
:104D90009F4F08952F923F924F925F926F927F9212
:104DA0008F929F92AF92BF92CF92DF92EF92FF923B
:104DB0000F931F93CF93DF93CDB7DEB7CA1BDB0BE7
:104DC0000FB6F894DEBF0FBECDBF09942A8839888C
:104DD00048885F846E847D848C849B84AA84B98493
:104DE000C884DF80EE80FD800C811B81AA81B9819F
:104DF000CE0FD11D0FB6F894DEBF0FBECDBFED01B3
:064E00000895F894FFCFB5
:104E06004F46460020202020202020202020202041
:104E16002020202000596F752061726520736C6513
:104E26006570696E670054696D65203A20003A0026
:104E360053706565643A2000204B6D68004C696DBF
:104E460069743A2000284F46462900284F4E29000B
:104E5600504E44523A20004343533A20004F4646B0
:104E6600004F4E004241533A20004B4D20436F7590
:104E76006E746572203A2000204B4D0045004600B6
:104E860044617465203A2031382F332F3230323462
:104E9600004F4E20004F4E2920004F464629000065
:104EA60000000000000000000102020303030304E7
:104EB60004040404040404050505050505050505A3
:104EC6000505050505050506060606060606060683
:104ED600060606060606060606060606060606066C
:104EE6000606060606060607070707070707070753
:104EF600070707070707070707070707070707073C
:104F0600070707070707070707070707070707072B
:104F1600070707070707070707070707070707071B
:104F26000707070707070708080808080808080802
:104F360008080808080808080808080808080808EB
:104F460008080808080808080808080808080808DB
:104F560008080808080808080808080808080808CB
:104F660008080808080808080808080808080808BB
:104F760008080808080808080808080808080808AB
:104F8600080808080808080808080808080808089B
:104F9600080808080808080808080808080808088B
:104FA60008080808080808010101013132333435C0
:0A4FB600363738392F2E2D22212026
:00000001FF
